{
  "deployments": [
    {
      "transactions": [
        {
          "hash": "0xb5013a5e9f8dc336c2f88483b899cb6bcfd5340ba19890f095c473437a215d81",
          "transactionType": "CREATE",
          "contractName": "MockERC20",
          "contractAddress": "0x40bbad54fe7d8d7d079d56c7b90be2d298cb29b6",
          "function": null,
          "arguments": [
            "MockERC20",
            "MCK"
          ],
          "transaction": {
            "from": "0xfc700d4e7d22ee50c66591c7295b06c3e6238968",
            "gas": "0xef7a8",
            "value": "0x0",
            "input": "0x608060405234801561000f575f80fd5b50604051610e64380380610e6483398101604081905261002e91610178565b338282600361003d838261025b565b50600461004a828261025b565b5050506001600160a01b03811661007a57604051631e4fbdf760e01b81525f600482015260240160405180910390fd5b6100838161008b565b50505061031a565b600580546001600160a01b038381166001600160a01b0319831681179093556040519116919082907f8be0079c531659141344cd1fd0a4f28419497f9722a3daafe3b4186f6b6457e0905f90a35050565b634e487b7160e01b5f52604160045260245ffd5b5f82601f8301126100ff575f80fd5b81516001600160401b0380821115610119576101196100dc565b604051601f8301601f19908116603f01168101908282118183101715610141576101416100dc565b81604052838152866020858801011115610159575f80fd5b8360208701602083015e5f602085830101528094505050505092915050565b5f8060408385031215610189575f80fd5b82516001600160401b038082111561019f575f80fd5b6101ab868387016100f0565b935060208501519150808211156101c0575f80fd5b506101cd858286016100f0565b9150509250929050565b600181811c908216806101eb57607f821691505b60208210810361020957634e487b7160e01b5f52602260045260245ffd5b50919050565b601f82111561025657805f5260205f20601f840160051c810160208510156102345750805b601f840160051c820191505b81811015610253575f8155600101610240565b50505b505050565b81516001600160401b03811115610274576102746100dc565b6102888161028284546101d7565b8461020f565b602080601f8311600181146102bb575f84156102a45750858301515b5f19600386901b1c1916600185901b178555610312565b5f85815260208120601f198616915b828110156102e9578886015182559484019460019091019084016102ca565b508582101561030657878501515f19600388901b60f8161c191681555b505060018460011b0185555b505050505050565b610b3d806103275f395ff3fe608060405234801561000f575f80fd5b50600436106100da575f3560e01c806370a082311161008857806395d89b411161006357806395d89b41146101cd578063a9059cbb146101d5578063dd62ed3e146101e8578063f2fde38b1461022d575f80fd5b806370a0823114610168578063715018a61461019d5780638da5cb5b146101a5575f80fd5b806323b872dd116100b857806323b872dd14610131578063313ce5671461014457806340c10f1914610153575f80fd5b806306fdde03146100de578063095ea7b3146100fc57806318160ddd1461011f575b5f80fd5b6100e6610240565b6040516100f39190610951565b60405180910390f35b61010f61010a3660046109cc565b6102d0565b60405190151581526020016100f3565b6002545b6040519081526020016100f3565b61010f61013f3660046109f4565b6102e9565b604051601281526020016100f3565b6101666101613660046109cc565b61030c565b005b610123610176366004610a2d565b73ffffffffffffffffffffffffffffffffffffffff165f9081526020819052604090205490565b610166610322565b60055460405173ffffffffffffffffffffffffffffffffffffffff90911681526020016100f3565b6100e6610335565b61010f6101e33660046109cc565b610344565b6101236101f6366004610a4d565b73ffffffffffffffffffffffffffffffffffffffff9182165f90815260016020908152604080832093909416825291909152205490565b61016661023b366004610a2d565b610351565b60606003805461024f90610a7e565b80601f016020809104026020016040519081016040528092919081815260200182805461027b90610a7e565b80156102c65780601f1061029d576101008083540402835291602001916102c6565b820191905f5260205f20905b8154815290600101906020018083116102a957829003601f168201915b5050505050905090565b5f336102dd8185856103b9565b60019150505b92915050565b5f336102f68582856103cb565b610301858585610499565b506001949350505050565b610314610542565b61031e8282610595565b5050565b61032a610542565b6103335f6105ef565b565b60606004805461024f90610a7e565b5f336102dd818585610499565b610359610542565b73ffffffffffffffffffffffffffffffffffffffff81166103ad576040517f1e4fbdf70000000000000000000000000000000000000000000000000000000081525f60048201526024015b60405180910390fd5b6103b6816105ef565b50565b6103c68383836001610665565b505050565b73ffffffffffffffffffffffffffffffffffffffff8381165f908152600160209081526040808320938616835292905220547fffffffffffffffffffffffffffffffffffffffffffffffffffffffffffffffff8110156104935781811015610485576040517ffb8f41b200000000000000000000000000000000000000000000000000000000815273ffffffffffffffffffffffffffffffffffffffff8416600482015260248101829052604481018390526064016103a4565b61049384848484035f610665565b50505050565b73ffffffffffffffffffffffffffffffffffffffff83166104e8576040517f96c6fd1e0000000000000000000000000000000000000000000000000000000081525f60048201526024016103a4565b73ffffffffffffffffffffffffffffffffffffffff8216610537576040517fec442f050000000000000000000000000000000000000000000000000000000081525f60048201526024016103a4565b6103c68383836107aa565b60055473ffffffffffffffffffffffffffffffffffffffff163314610333576040517f118cdaa70000000000000000000000000000000000000000000000000000000081523360048201526024016103a4565b73ffffffffffffffffffffffffffffffffffffffff82166105e4576040517fec442f050000000000000000000000000000000000000000000000000000000081525f60048201526024016103a4565b61031e5f83836107aa565b6005805473ffffffffffffffffffffffffffffffffffffffff8381167fffffffffffffffffffffffff0000000000000000000000000000000000000000831681179093556040519116919082907f8be0079c531659141344cd1fd0a4f28419497f9722a3daafe3b4186f6b6457e0905f90a35050565b73ffffffffffffffffffffffffffffffffffffffff84166106b4576040517fe602df050000000000000000000000000000000000000000000000000000000081525f60048201526024016103a4565b73ffffffffffffffffffffffffffffffffffffffff8316610703576040517f94280d620000000000000000000000000000000000000000000000000000000081525f60048201526024016103a4565b73ffffffffffffffffffffffffffffffffffffffff8085165f9081526001602090815260408083209387168352929052208290558015610493578273ffffffffffffffffffffffffffffffffffffffff168473ffffffffffffffffffffffffffffffffffffffff167f8c5be1e5ebec7d5bd14f71427d1e84f3dd0314c0f7b2291e5b200ac8c7c3b9258460405161079c91815260200190565b60405180910390a350505050565b73ffffffffffffffffffffffffffffffffffffffff83166107e1578060025f8282546107d69190610acf565b909155506108919050565b73ffffffffffffffffffffffffffffffffffffffff83165f9081526020819052604090205481811015610866576040517fe450d38c00000000000000000000000000000000000000000000000000000000815273ffffffffffffffffffffffffffffffffffffffff8516600482015260248101829052604481018390526064016103a4565b73ffffffffffffffffffffffffffffffffffffffff84165f9081526020819052604090209082900390555b73ffffffffffffffffffffffffffffffffffffffff82166108ba576002805482900390556108e5565b73ffffffffffffffffffffffffffffffffffffffff82165f9081526020819052604090208054820190555b8173ffffffffffffffffffffffffffffffffffffffff168373ffffffffffffffffffffffffffffffffffffffff167fddf252ad1be2c89b69c2b068fc378daa952ba7f163c4a11628f55a4df523b3ef8360405161094491815260200190565b60405180910390a3505050565b602081525f82518060208401528060208501604085015e5f6040828501015260407fffffffffffffffffffffffffffffffffffffffffffffffffffffffffffffffe0601f83011684010191505092915050565b803573ffffffffffffffffffffffffffffffffffffffff811681146109c7575f80fd5b919050565b5f80604083850312156109dd575f80fd5b6109e6836109a4565b946020939093013593505050565b5f805f60608486031215610a06575f80fd5b610a0f846109a4565b9250610a1d602085016109a4565b9150604084013590509250925092565b5f60208284031215610a3d575f80fd5b610a46826109a4565b9392505050565b5f8060408385031215610a5e575f80fd5b610a67836109a4565b9150610a75602084016109a4565b90509250929050565b600181811c90821680610a9257607f821691505b602082108103610ac9577f4e487b71000000000000000000000000000000000000000000000000000000005f52602260045260245ffd5b50919050565b808201808211156102e3577f4e487b71000000000000000000000000000000000000000000000000000000005f52601160045260245ffdfea26469706673582212207317691cc14fd8453f29b25ae1cf637410beed716687d4e1429c567f4a3f398364736f6c634300081900330000000000000000000000000000000000000000000000000000000000000040000000000000000000000000000000000000000000000000000000000000008000000000000000000000000000000000000000000000000000000000000000094d6f636b4552433230000000000000000000000000000000000000000000000000000000000000000000000000000000000000000000000000000000000000034d434b0000000000000000000000000000000000000000000000000000000000",
            "nonce": "0xc",
            "chainId": "0xaa36a7"
          },
          "additionalContracts": [],
          "isFixedGasLimit": false
        },
        {
          "hash": "0x7ae4be904206a2d44b9bdd9e145cc41499f11499b2f9a1236bbd924c5ecf851c",
          "transactionType": "CALL",
          "contractName": "MockERC20",
          "contractAddress": "0x40bbad54fe7d8d7d079d56c7b90be2d298cb29b6",
          "function": "mint(address,uint256)",
          "arguments": [
            "0xfc700D4E7D22eE50C66591C7295b06C3E6238968",
            "1000000000000000000000000"
          ],
          "transaction": {
            "from": "0xfc700d4e7d22ee50c66591c7295b06c3e6238968",
            "to": "0x40bbad54fe7d8d7d079d56c7b90be2d298cb29b6",
            "gas": "0x1931d",
            "value": "0x0",
            "input": "0x40c10f19000000000000000000000000fc700d4e7d22ee50c66591c7295b06c3e623896800000000000000000000000000000000000000000000d3c21bcecceda1000000",
            "nonce": "0xd",
            "chainId": "0xaa36a7"
          },
          "additionalContracts": [],
          "isFixedGasLimit": false
        },
        {
          "hash": "0xec65bf714f793924e6f98637f3f1c1f7d3059dc0cc50c14119baefd6f95fabd7",
          "transactionType": "CREATE",
          "contractName": "TokenBridge",
          "contractAddress": "0x86e8b4731ee7e7c00bb0dc4d9172976caa639201",
          "function": null,
          "arguments": [
            "0x40bBAD54FE7D8D7D079d56C7b90be2D298cb29b6",
            "0x6EDCE65403992e310A62460808c4b910D972f10f",
            "40217"
          ],
          "transaction": {
            "from": "0xfc700d4e7d22ee50c66591c7295b06c3e6238968",
            "gas": "0x1e7ab4",
            "value": "0x0",
            "input": "0x60e060405234801561000f575f80fd5b50604051611c3e380380611c3e83398101604081905261002e9161019c565b81338181808061005757604051631e4fbdf760e01b81525f600482015260240160405180910390fd5b61006081610132565b506001600160a01b03808316608052811661008e57604051632d618d8160e21b815260040160405180910390fd5b60805160405163ca5eb5e160e01b81526001600160a01b0383811660048301529091169063ca5eb5e1906024015f604051808303815f87803b1580156100d2575f80fd5b505af11580156100e4573d5f803e3d5ffd5b5050506001600160a01b038816945061011593505050505760405163d92e233d60e01b815260040160405180910390fd5b6001600160a01b0390921660a0525063ffffffff1660c0526101e8565b5f80546001600160a01b038381166001600160a01b0319831681178455604051919092169283917f8be0079c531659141344cd1fd0a4f28419497f9722a3daafe3b4186f6b6457e09190a35050565b80516001600160a01b0381168114610197575f80fd5b919050565b5f805f606084860312156101ae575f80fd5b6101b784610181565b92506101c560208501610181565b9150604084015163ffffffff811681146101dd575f80fd5b809150509250925092565b60805160a05160c0516119ed6102515f395f818161018d015281816105ec015261092001525f81816101d501526107f601525f81816102e70152818161048201528181610a1101528181610c1101528181610e270152818161105f015261115601526119ed5ff3fe60806040526004361061013d575f3560e01c8063715018a6116100bb578063bb0b6a5311610071578063ca5eb5e111610057578063ca5eb5e114610423578063f2fde38b14610442578063ff7bd03d14610461575f80fd5b8063bb0b6a53146103cc578063c72242b2146103f7575f80fd5b806382413eac116100a157806382413eac146103555780638da5cb5b14610390578063aa68acde146103b9575f80fd5b8063715018a6146103095780637d25a05e1461031d575f80fd5b80633400288b1161011057806356891412116100f657806356891412146102795780635900e76e1461029c5780635e280f11146102d6575f80fd5b80633400288b1461021c57806340c5faf01461023b575f80fd5b806313137d651461014157806317442b7014610156578063176e619e1461017c57806332b1043d146101c4575b5f80fd5b61015461014f36600461141c565b610480565b005b348015610161575f80fd5b50604080516001815260026020820152015b60405180910390f35b348015610187575f80fd5b506101af7f000000000000000000000000000000000000000000000000000000000000000081565b60405163ffffffff9091168152602001610173565b3480156101cf575f80fd5b506101f77f000000000000000000000000000000000000000000000000000000000000000081565b60405173ffffffffffffffffffffffffffffffffffffffff9091168152602001610173565b348015610227575f80fd5b506101546102363660046114cd565b610570565b348015610246575f80fd5b506102696102553660046114f5565b60026020525f908152604090205460ff1681565b6040519015158152602001610173565b348015610284575f80fd5b5061028e60035481565b604051908152602001610173565b3480156102a7575f80fd5b506102bb6102b636600461150c565b610586565b60408051825181526020928301519281019290925201610173565b3480156102e1575f80fd5b506101f77f000000000000000000000000000000000000000000000000000000000000000081565b348015610314575f80fd5b50610154610629565b348015610328575f80fd5b5061033c6103373660046114cd565b61063c565b60405167ffffffffffffffff9091168152602001610173565b348015610360575f80fd5b5061026961036f36600461154f565b73ffffffffffffffffffffffffffffffffffffffff81163014949350505050565b34801561039b575f80fd5b505f5473ffffffffffffffffffffffffffffffffffffffff166101f7565b6101546103c73660046115b2565b610644565b3480156103d7575f80fd5b5061028e6103e63660046115e0565b60016020525f908152604090205481565b348015610402575f80fd5b50610416610411366004611618565b610970565b6040516101739190611695565b34801561042e575f80fd5b5061015461043d3660046116a7565b6109c4565b34801561044d575f80fd5b5061015461045c3660046116a7565b610a6b565b34801561046c575f80fd5b5061026961047b3660046116c2565b610ace565b7f000000000000000000000000000000000000000000000000000000000000000073ffffffffffffffffffffffffffffffffffffffff1633146104f6576040517f91ac5e4f0000000000000000000000000000000000000000000000000000000081523360048201526024015b60405180910390fd5b602087018035906105109061050b908a6115e0565b610b02565b146105675761052260208801886115e0565b6040517fc26bebcc00000000000000000000000000000000000000000000000000000000815263ffffffff9091166004820152602088013560248201526044016104ed565b50505050505050565b610578610b56565b6105828282610ba8565b5050565b604080518082019091525f80825260208201526040805173ffffffffffffffffffffffffffffffffffffffff808816602083015286169181019190915260608101849052608081018390525f9060a001604051602081830303815290604052905061061f7f000000000000000000000000000000000000000000000000000000000000000082610619620493e05f610970565b5f610bfc565b9695505050505050565b610631610b56565b61063a5f610ce7565b565b5f5b92915050565b815f0361067d576040517f1f2a200500000000000000000000000000000000000000000000000000000000815260040160405180910390fd5b73ffffffffffffffffffffffffffffffffffffffff81166106ca576040517fd92e233d00000000000000000000000000000000000000000000000000000000815260040160405180910390fd5b604080514660208201524391810191909152426060808301919091527fffffffffffffffffffffffffffffffffffffffff00000000000000000000000033821b81166080840152609483018590529083901b1660b48201525f9060c801604080517fffffffffffffffffffffffffffffffffffffffffffffffffffffffffffffffe081840301815291815281516020928301205f818152600290935291205490915060ff16156107a6576040517f57eee76600000000000000000000000000000000000000000000000000000000815260040160405180910390fd5b5f81815260026020526040902080547fffffffffffffffffffffffffffffffffffffffffffffffffffffffffffffff0016600117905561081e73ffffffffffffffffffffffffffffffffffffffff7f000000000000000000000000000000000000000000000000000000000000000016333086610d5b565b8260035f82825461082f9190611709565b9091555050604051838152819073ffffffffffffffffffffffffffffffffffffffff84169033907fce5aa80d5a0785faf7555aaebaff45f1d50c3976c94d46f53ee2528b1486dc159060200160405180910390a46040805133602082015273ffffffffffffffffffffffffffffffffffffffff84169181019190915260608101849052608081018290525f9060a00160405160208183030381529060405290505f6108dc33858786610586565b905034815f0151111561091b576040517f9c92bdfb00000000000000000000000000000000000000000000000000000000815260040160405180910390fd5b6109687f00000000000000000000000000000000000000000000000000000000000000008361094d620493e05f610970565b60405180604001604052803481526020015f81525033610df6565b505050505050565b60606109bd6109b6604080517e03000000000000000000000000000000000000000000000000000000000000602082015281516002818303018152602290910190915290565b8484610f09565b9392505050565b6109cc610b56565b6040517fca5eb5e100000000000000000000000000000000000000000000000000000000815273ffffffffffffffffffffffffffffffffffffffff82811660048301527f0000000000000000000000000000000000000000000000000000000000000000169063ca5eb5e1906024015f604051808303815f87803b158015610a52575f80fd5b505af1158015610a64573d5f803e3d5ffd5b5050505050565b610a73610b56565b73ffffffffffffffffffffffffffffffffffffffff8116610ac2576040517f1e4fbdf70000000000000000000000000000000000000000000000000000000081525f60048201526024016104ed565b610acb81610ce7565b50565b5f602082018035906001908390610ae590866115e0565b63ffffffff16815260208101919091526040015f20541492915050565b63ffffffff81165f908152600160205260408120548061063e576040517ff6ff4fb700000000000000000000000000000000000000000000000000000000815263ffffffff841660048201526024016104ed565b5f5473ffffffffffffffffffffffffffffffffffffffff16331461063a576040517f118cdaa70000000000000000000000000000000000000000000000000000000081523360048201526024016104ed565b63ffffffff82165f81815260016020908152604091829020849055815192835282018390527f238399d427b947898edb290f5ff0f9109849b1c3ba196a42e35f00c50a54b98b910160405180910390a15050565b604080518082019091525f80825260208201527f000000000000000000000000000000000000000000000000000000000000000073ffffffffffffffffffffffffffffffffffffffff1663ddc28c586040518060a001604052808863ffffffff168152602001610c6b89610b02565b8152602001878152602001868152602001851515815250306040518363ffffffff1660e01b8152600401610ca092919061171c565b6040805180830381865afa158015610cba573d5f803e3d5ffd5b505050506040513d601f19601f82011682018060405250810190610cde9190611831565b95945050505050565b5f805473ffffffffffffffffffffffffffffffffffffffff8381167fffffffffffffffffffffffff0000000000000000000000000000000000000000831681178455604051919092169283917f8be0079c531659141344cd1fd0a4f28419497f9722a3daafe3b4186f6b6457e09190a35050565b6040805173ffffffffffffffffffffffffffffffffffffffff85811660248301528416604482015260648082018490528251808303909101815260849091019091526020810180517bffffffffffffffffffffffffffffffffffffffffffffffffffffffff167f23b872dd00000000000000000000000000000000000000000000000000000000179052610df0908590610f7d565b50505050565b610dfe61135c565b5f610e0b845f015161101c565b602085015190915015610e2557610e25846020015161105c565b7f000000000000000000000000000000000000000000000000000000000000000073ffffffffffffffffffffffffffffffffffffffff16632637a450826040518060a001604052808b63ffffffff168152602001610e828c610b02565b81526020018a81526020018981526020015f8960200151111515815250866040518463ffffffff1660e01b8152600401610ebd92919061171c565b60806040518083038185885af1158015610ed9573d5f803e3d5ffd5b50505050506040513d601f19601f82011682018060405250810190610efe919061184b565b979650505050505050565b6060836003610f18825f61117b565b61ffff1614610f6457610f2b815f61117b565b6040517f3a51740d00000000000000000000000000000000000000000000000000000000815261ffff90911660048201526024016104ed565b5f610f6f85856111fa565b905061061f866001836112ac565b5f8060205f8451602086015f885af180610f9c576040513d5f823e3d81fd5b50505f513d91508115610fb3578060011415610fcd565b73ffffffffffffffffffffffffffffffffffffffff84163b155b15610df0576040517f5274afe700000000000000000000000000000000000000000000000000000000815273ffffffffffffffffffffffffffffffffffffffff851660048201526024016104ed565b5f813414611058576040517f9f7041200000000000000000000000000000000000000000000000000000000081523460048201526024016104ed565b5090565b5f7f000000000000000000000000000000000000000000000000000000000000000073ffffffffffffffffffffffffffffffffffffffff1663e4fe1d946040518163ffffffff1660e01b8152600401602060405180830381865afa1580156110c6573d5f803e3d5ffd5b505050506040513d601f19601f820116820180604052508101906110ea91906118df565b905073ffffffffffffffffffffffffffffffffffffffff8116611139576040517f5373352a00000000000000000000000000000000000000000000000000000000815260040160405180910390fd5b61058273ffffffffffffffffffffffffffffffffffffffff8216337f000000000000000000000000000000000000000000000000000000000000000085610d5b565b5f611187826002611709565b835110156111f1576040517f08c379a000000000000000000000000000000000000000000000000000000000815260206004820152601460248201527f746f55696e7431365f6f75744f66426f756e647300000000000000000000000060448201526064016104ed565b50016002015190565b60606fffffffffffffffffffffffffffffffff82161561126357604080517fffffffffffffffffffffffffffffffff00000000000000000000000000000000608086811b8216602084015285901b166030820152016040516020818303038152906040526109bd565b6040517fffffffffffffffffffffffffffffffff00000000000000000000000000000000608085901b166020820152603001604051602081830303815290604052905092915050565b60608360036112bb825f61117b565b61ffff16146112ce57610f2b815f61117b565b8460016112db8551611315565b6112e69060016118fa565b86866040516020016112fc959493929190611933565b6040516020818303038152906040529150509392505050565b5f61ffff821115611058576040517f6dfcc65000000000000000000000000000000000000000000000000000000000815260106004820152602481018390526044016104ed565b60405180606001604052805f80191681526020015f67ffffffffffffffff16815260200161139b60405180604001604052805f81526020015f81525090565b905290565b5f606082840312156113b0575f80fd5b50919050565b5f8083601f8401126113c6575f80fd5b50813567ffffffffffffffff8111156113dd575f80fd5b6020830191508360208285010111156113f4575f80fd5b9250929050565b73ffffffffffffffffffffffffffffffffffffffff81168114610acb575f80fd5b5f805f805f805f60e0888a031215611432575f80fd5b61143c89896113a0565b965060608801359550608088013567ffffffffffffffff8082111561145f575f80fd5b61146b8b838c016113b6565b909750955060a08a01359150611480826113fb565b90935060c08901359080821115611495575f80fd5b506114a28a828b016113b6565b989b979a50959850939692959293505050565b803563ffffffff811681146114c8575f80fd5b919050565b5f80604083850312156114de575f80fd5b6114e7836114b5565b946020939093013593505050565b5f60208284031215611505575f80fd5b5035919050565b5f805f806080858703121561151f575f80fd5b843561152a816113fb565b9350602085013561153a816113fb565b93969395505050506040820135916060013590565b5f805f8060a08587031215611562575f80fd5b61156c86866113a0565b9350606085013567ffffffffffffffff811115611587575f80fd5b611593878288016113b6565b90945092505060808501356115a7816113fb565b939692955090935050565b5f80604083850312156115c3575f80fd5b8235915060208301356115d5816113fb565b809150509250929050565b5f602082840312156115f0575f80fd5b6109bd826114b5565b80356fffffffffffffffffffffffffffffffff811681146114c8575f80fd5b5f8060408385031215611629575f80fd5b611632836115f9565b9150611640602084016115f9565b90509250929050565b5f81518084528060208401602086015e5f6020828601015260207fffffffffffffffffffffffffffffffffffffffffffffffffffffffffffffffe0601f83011685010191505092915050565b602081525f6109bd6020830184611649565b5f602082840312156116b7575f80fd5b81356109bd816113fb565b5f606082840312156116d2575f80fd5b6109bd83836113a0565b7f4e487b71000000000000000000000000000000000000000000000000000000005f52601160045260245ffd5b8082018082111561063e5761063e6116dc565b6040815263ffffffff8351166040820152602083015160608201525f604084015160a0608084015261175160e0840182611649565b905060608501517fffffffffffffffffffffffffffffffffffffffffffffffffffffffffffffffc08483030160a085015261178c8282611649565b60809690960151151560c085015250505073ffffffffffffffffffffffffffffffffffffffff9190911660209091015290565b5f604082840312156117cf575f80fd5b6040516040810181811067ffffffffffffffff82111715611817577f4e487b71000000000000000000000000000000000000000000000000000000005f52604160045260245ffd5b604052825181526020928301519281019290925250919050565b5f60408284031215611841575f80fd5b6109bd83836117bf565b5f6080828403121561185b575f80fd5b6040516060810167ffffffffffffffff82821081831117156118a4577f4e487b71000000000000000000000000000000000000000000000000000000005f52604160045260245ffd5b81604052845183526020850151915080821682146118c0575f80fd5b5060208201526118d384604085016117bf565b60408201529392505050565b5f602082840312156118ef575f80fd5b81516109bd816113fb565b61ffff818116838216019080821115611915576119156116dc565b5092915050565b5f81518060208401855e5f93019283525090919050565b5f61193e828861191c565b7fff00000000000000000000000000000000000000000000000000000000000000808860f81b1682527fffff0000000000000000000000000000000000000000000000000000000000008760f01b166001830152808660f81b166003830152506119ab600482018561191c565b9897505050505050505056fea2646970667358221220ca3c4af2358280680fe05de8e346b08307ad22cda32ee20624540903b79b3a2264736f6c6343000819003300000000000000000000000040bbad54fe7d8d7d079d56c7b90be2d298cb29b60000000000000000000000006edce65403992e310a62460808c4b910d972f10f0000000000000000000000000000000000000000000000000000000000009d19",
            "nonce": "0xe",
            "chainId": "0xaa36a7"
          },
          "additionalContracts": [],
          "isFixedGasLimit": false
        }
      ],
      "receipts": [
        {
          "status": "0x1",
          "cumulativeGasUsed": "0x14a31ad",
          "logs": [
            {
              "address": "0x40bbad54fe7d8d7d079d56c7b90be2d298cb29b6",
              "topics": [
                "0x8be0079c531659141344cd1fd0a4f28419497f9722a3daafe3b4186f6b6457e0",
                "0x0000000000000000000000000000000000000000000000000000000000000000",
                "0x000000000000000000000000fc700d4e7d22ee50c66591c7295b06c3e6238968"
              ],
              "data": "0x",
              "blockHash": "0x1bf0edce1c4f6f2c28f2b7d24ad0845c42178894e33d998b42efc329a87e57d9",
              "blockNumber": "0x81ce85",
              "transactionHash": "0xb5013a5e9f8dc336c2f88483b899cb6bcfd5340ba19890f095c473437a215d81",
              "transactionIndex": "0x5b",
              "logIndex": "0x7c",
              "removed": false
            }
          ],
          "logsBloom": "0x00000000000000000000000000000000000000000000000000800000000000000000000000000004000000000000000000000000000000000000000000000000000000000000000001000000000000000001000000000000000000000000000000000000020000000000020000000800000000000000000000000000000800400000000000000000000000000000000000000000000000000000000000000000000000000000000000000000000000000000000000000000000000000000000000000000000000000000000000000000000000000000000000000000000020002020000000000000000000000000000000000000000000000000000000000000",
          "type": "0x2",
          "transactionHash": "0xb5013a5e9f8dc336c2f88483b899cb6bcfd5340ba19890f095c473437a215d81",
          "transactionIndex": "0x5b",
          "blockHash": "0x1bf0edce1c4f6f2c28f2b7d24ad0845c42178894e33d998b42efc329a87e57d9",
          "blockNumber": "0x81ce85",
          "gasUsed": "0xb836e",
          "effectiveGasPrice": "0xf424b",
          "from": "0xfc700d4e7d22ee50c66591c7295b06c3e6238968",
          "to": null,
          "contractAddress": "0x40bbad54fe7d8d7d079d56c7b90be2d298cb29b6"
        },
        {
          "status": "0x1",
          "cumulativeGasUsed": "0xee4917",
          "logs": [
            {
              "address": "0x40bbad54fe7d8d7d079d56c7b90be2d298cb29b6",
              "topics": [
                "0xddf252ad1be2c89b69c2b068fc378daa952ba7f163c4a11628f55a4df523b3ef",
                "0x0000000000000000000000000000000000000000000000000000000000000000",
                "0x000000000000000000000000fc700d4e7d22ee50c66591c7295b06c3e6238968"
              ],
              "data": "0x00000000000000000000000000000000000000000000d3c21bcecceda1000000",
              "blockHash": "0x6ad360e6851889f15e56db528452e57b7ac69238782feebe6ebbd3e1b717f4c8",
              "blockNumber": "0x81ce86",
              "transactionHash": "0x7ae4be904206a2d44b9bdd9e145cc41499f11499b2f9a1236bbd924c5ecf851c",
              "transactionIndex": "0x3b",
              "logIndex": "0x4e",
              "removed": false
            }
          ],
          "logsBloom": "0x00000000000000000000000000000000000000000000000000000000000000000000000000000004000000000000000000000000000000000000000000000000000000000000000001000008000000000000000000000000000000000000000000000000020000000000020000000800000000000000000000000010000800000000000000000000000000000000000000000000000000000000000000000000000000000000000000000000000000000000000000000000000000000000000000000002000000000000000000000000000000000000000000000000000020002020000000000000000000000000000000000000000000000000000000000000",
          "type": "0x2",
          "transactionHash": "0x7ae4be904206a2d44b9bdd9e145cc41499f11499b2f9a1236bbd924c5ecf851c",
          "transactionIndex": "0x3b",
          "blockHash": "0x6ad360e6851889f15e56db528452e57b7ac69238782feebe6ebbd3e1b717f4c8",
          "blockNumber": "0x81ce86",
          "gasUsed": "0x113a3",
          "effectiveGasPrice": "0xf424b",
          "from": "0xfc700d4e7d22ee50c66591c7295b06c3e6238968",
          "to": "0x40bbad54fe7d8d7d079d56c7b90be2d298cb29b6",
          "contractAddress": null
        },
        {
          "status": "0x1",
          "cumulativeGasUsed": "0x8a3b1d",
          "logs": [
            {
              "address": "0x86e8b4731ee7e7c00bb0dc4d9172976caa639201",
              "topics": [
                "0x8be0079c531659141344cd1fd0a4f28419497f9722a3daafe3b4186f6b6457e0",
                "0x0000000000000000000000000000000000000000000000000000000000000000",
                "0x000000000000000000000000fc700d4e7d22ee50c66591c7295b06c3e6238968"
              ],
              "data": "0x",
              "blockHash": "0x238d299fa305a7701d09699eb5fbe0f4d2ca4b55b353dcb5ef1de574017e0ea4",
              "blockNumber": "0x81ce87",
              "transactionHash": "0xec65bf714f793924e6f98637f3f1c1f7d3059dc0cc50c14119baefd6f95fabd7",
              "transactionIndex": "0x48",
              "logIndex": "0x68",
              "removed": false
            },
            {
              "address": "0x6edce65403992e310a62460808c4b910d972f10f",
              "topics": [
                "0x6ee10e9ed4d6ce9742703a498707862f4b00f1396a87195eb93267b3d7983981"
              ],
              "data": "0x00000000000000000000000086e8b4731ee7e7c00bb0dc4d9172976caa639201000000000000000000000000fc700d4e7d22ee50c66591c7295b06c3e6238968",
              "blockHash": "0x238d299fa305a7701d09699eb5fbe0f4d2ca4b55b353dcb5ef1de574017e0ea4",
              "blockNumber": "0x81ce87",
              "transactionHash": "0xec65bf714f793924e6f98637f3f1c1f7d3059dc0cc50c14119baefd6f95fabd7",
              "transactionIndex": "0x48",
              "logIndex": "0x69",
              "removed": false
            }
          ],
          "logsBloom": "0x00000000000000000000000000000000000000000000000000800000000000010000000000000004200000000000000000000002000000000000000000000000000000000000000000000000000000000001000000000000000000000000000000000000020000000200020000000800000000000000000000000000000800400000001000000020000000000000000000000000000000000000000000000000000000000000000000000000000000000000000000000000000000000000000400000000010000000000000000000000000000000000000000000000000020000000000000000000000000000000000000000000000000000000000000000000",
          "type": "0x2",
          "transactionHash": "0xec65bf714f793924e6f98637f3f1c1f7d3059dc0cc50c14119baefd6f95fabd7",
          "transactionIndex": "0x48",
          "blockHash": "0x238d299fa305a7701d09699eb5fbe0f4d2ca4b55b353dcb5ef1de574017e0ea4",
          "blockNumber": "0x81ce87",
          "gasUsed": "0x177215",
          "effectiveGasPrice": "0xf424b",
          "from": "0xfc700d4e7d22ee50c66591c7295b06c3e6238968",
          "to": null,
          "contractAddress": "0x86e8b4731ee7e7c00bb0dc4d9172976caa639201"
        }
      ],
      "libraries": [],
      "pending": [],
      "returns": {},
      "timestamp": 1749424017,
      "chain": 11155111,
      "commit": "0e89b13"
    },
    {
      "transactions": [
        {
          "hash": "0xe1267092d9bbbc547603bb509b1793e925deff1ce4a0cec6b956df7f232cb163",
          "transactionType": "CREATE",
          "contractName": "WrappedToken",
          "contractAddress": "0x6eeb0f8829ca6e9acc45b25e7b936758e8a714e1",
          "function": null,
          "arguments": [
            "Wrapped MockERC20",
            "wMCK",
            "0x6EDCE65403992e310A62460808c4b910D972f10f"
          ],
          "transaction": {
            "from": "0xfc700d4e7d22ee50c66591c7295b06c3e6238968",
            "gas": "0x18b8cb",
            "value": "0x0",
            "input": "0x60a060405234801561000f575f80fd5b5060405161178638038061178683398101604081905261002e91610200565b828282338181808061005957604051631e4fbdf760e01b81525f600482015260240160405180910390fd5b61006281610115565b506001600160a01b03808316608052811661009057604051632d618d8160e21b815260040160405180910390fd5b60805160405163ca5eb5e160e01b81526001600160a01b0383811660048301529091169063ca5eb5e1906024015f604051808303815f87803b1580156100d4575f80fd5b505af11580156100e6573d5f803e3d5ffd5b505050505050505081600590816100fd9190610303565b50600661010a8282610303565b5050505050506103c2565b5f80546001600160a01b038381166001600160a01b0319831681178455604051919092169283917f8be0079c531659141344cd1fd0a4f28419497f9722a3daafe3b4186f6b6457e09190a35050565b634e487b7160e01b5f52604160045260245ffd5b5f82601f830112610187575f80fd5b81516001600160401b03808211156101a1576101a1610164565b604051601f8301601f19908116603f011681019082821181831017156101c9576101c9610164565b816040528381528660208588010111156101e1575f80fd5b8360208701602083015e5f602085830101528094505050505092915050565b5f805f60608486031215610212575f80fd5b83516001600160401b0380821115610228575f80fd5b61023487838801610178565b94506020860151915080821115610249575f80fd5b5061025686828701610178565b604086015190935090506001600160a01b0381168114610274575f80fd5b809150509250925092565b600181811c9082168061029357607f821691505b6020821081036102b157634e487b7160e01b5f52602260045260245ffd5b50919050565b601f8211156102fe57805f5260205f20601f840160051c810160208510156102dc5750805b601f840160051c820191505b818110156102fb575f81556001016102e8565b50505b505050565b81516001600160401b0381111561031c5761031c610164565b6103308161032a845461027f565b846102b7565b602080601f831160018114610363575f841561034c5750858301515b5f19600386901b1c1916600185901b1785556103ba565b5f85815260208120601f198616915b8281101561039157888601518255948401946001909101908401610372565b50858210156103ae57878501515f19600388901b60f8161c191681555b505060018460011b0185555b505050505050565b60805161139e6103e85f395f8181610288015281816105a70152610759015261139e5ff3fe60806040526004361061016d575f3560e01c80637d25a05e116100c6578063b2c0efe01161007c578063dd62ed3e11610057578063dd62ed3e1461046d578063f2fde38b146104be578063ff7bd03d146104dd575f80fd5b8063b2c0efe0146103f5578063bb0b6a5314610423578063ca5eb5e11461044e575f80fd5b80638da5cb5b116100ac5780638da5cb5b1461039957806395d89b41146103c2578063a9059cbb146103d6575f80fd5b80637d25a05e1461032457806382413eac1461035e575f80fd5b806323b872dd116101265780635e280f11116101015780635e280f111461027757806370a08231146102cf578063715018a614610310575f80fd5b806323b872dd1461021e578063313ce5671461023d5780633400288b14610258575f80fd5b806313137d651161015657806313137d65146101ca57806317442b70146101df57806318160ddd14610200575f80fd5b806306fdde0314610171578063095ea7b31461019b575b5f80fd5b34801561017c575f80fd5b506101856104fc565b6040516101929190610f9a565b60405180910390f35b3480156101a6575f80fd5b506101ba6101b536600461100e565b61058c565b6040519015158152602001610192565b6101dd6101d8366004611093565b6105a5565b005b3480156101ea575f80fd5b5060408051600181526002602082015201610192565b34801561020b575f80fd5b506004545b604051908152602001610192565b348015610229575f80fd5b506101ba61023836600461112c565b6106a4565b348015610248575f80fd5b5060405160128152602001610192565b348015610263575f80fd5b506101dd610272366004611182565b6106c7565b348015610282575f80fd5b506102aa7f000000000000000000000000000000000000000000000000000000000000000081565b60405173ffffffffffffffffffffffffffffffffffffffff9091168152602001610192565b3480156102da575f80fd5b506102106102e936600461119c565b73ffffffffffffffffffffffffffffffffffffffff165f9081526002602052604090205490565b34801561031b575f80fd5b506101dd6106dd565b34801561032f575f80fd5b5061034561033e366004611182565b5f92915050565b60405167ffffffffffffffff9091168152602001610192565b348015610369575f80fd5b506101ba6103783660046111be565b73ffffffffffffffffffffffffffffffffffffffff81163014949350505050565b3480156103a4575f80fd5b505f5473ffffffffffffffffffffffffffffffffffffffff166102aa565b3480156103cd575f80fd5b506101856106f0565b3480156103e1575f80fd5b506101ba6103f036600461100e565b6106ff565b348015610400575f80fd5b506101ba61040f366004611221565b60076020525f908152604090205460ff1681565b34801561042e575f80fd5b5061021061043d366004611238565b60016020525f908152604090205481565b348015610459575f80fd5b506101dd61046836600461119c565b61070c565b348015610478575f80fd5b50610210610487366004611251565b73ffffffffffffffffffffffffffffffffffffffff9182165f90815260036020908152604080832093909416825291909152205490565b3480156104c9575f80fd5b506101dd6104d836600461119c565b6107b3565b3480156104e8575f80fd5b506101ba6104f7366004611288565b610816565b60606005805461050b906112a2565b80601f0160208091040260200160405190810160405280929190818152602001828054610537906112a2565b80156105825780601f1061055957610100808354040283529160200191610582565b820191905f5260205f20905b81548152906001019060200180831161056557829003601f168201915b5050505050905090565b5f3361059981858561084a565b60019150505b92915050565b7f000000000000000000000000000000000000000000000000000000000000000073ffffffffffffffffffffffffffffffffffffffff16331461061b576040517f91ac5e4f0000000000000000000000000000000000000000000000000000000081523360048201526024015b60405180910390fd5b6020870180359061063590610630908a611238565b61085c565b1461068c576106476020880188611238565b6040517fc26bebcc00000000000000000000000000000000000000000000000000000000815263ffffffff909116600482015260208801356024820152604401610612565b61069b878787878787876108b0565b50505050505050565b5f336106b18582856109c7565b6106bc858585610a95565b506001949350505050565b6106cf610b3e565b6106d98282610b90565b5050565b6106e5610b3e565b6106ee5f610be4565b565b60606006805461050b906112a2565b5f33610599818585610a95565b610714610b3e565b6040517fca5eb5e100000000000000000000000000000000000000000000000000000000815273ffffffffffffffffffffffffffffffffffffffff82811660048301527f0000000000000000000000000000000000000000000000000000000000000000169063ca5eb5e1906024015f604051808303815f87803b15801561079a575f80fd5b505af11580156107ac573d5f803e3d5ffd5b5050505050565b6107bb610b3e565b73ffffffffffffffffffffffffffffffffffffffff811661080a576040517f1e4fbdf70000000000000000000000000000000000000000000000000000000081525f6004820152602401610612565b61081381610be4565b50565b5f60208201803590600190839061082d9086611238565b63ffffffff16815260208101919091526040015f20541492915050565b6108578383836001610c58565b505050565b63ffffffff81165f908152600160205260408120548061059f576040517ff6ff4fb700000000000000000000000000000000000000000000000000000000815263ffffffff84166004820152602401610612565b5f8080806108c0888a018a6112ed565b5f818152600760205260409020549397509195509350915060ff1615610912576040517f57eee76600000000000000000000000000000000000000000000000000000000815260040160405180910390fd5b5f81815260076020526040902080547fffffffffffffffffffffffffffffffffffffffffffffffffffffffffffffff001660011790556109528383610d9d565b808373ffffffffffffffffffffffffffffffffffffffff168573ffffffffffffffffffffffffffffffffffffffff167f91dd2cbfd54587f3aef7d0966c4185fae943cc4fe9e40877d4d7f2be4ec46e80856040516109b291815260200190565b60405180910390a45050505050505050505050565b73ffffffffffffffffffffffffffffffffffffffff8381165f908152600360209081526040808320938616835292905220547fffffffffffffffffffffffffffffffffffffffffffffffffffffffffffffffff811015610a8f5781811015610a81576040517ffb8f41b200000000000000000000000000000000000000000000000000000000815273ffffffffffffffffffffffffffffffffffffffff841660048201526024810182905260448101839052606401610612565b610a8f84848484035f610c58565b50505050565b73ffffffffffffffffffffffffffffffffffffffff8316610ae4576040517f96c6fd1e0000000000000000000000000000000000000000000000000000000081525f6004820152602401610612565b73ffffffffffffffffffffffffffffffffffffffff8216610b33576040517fec442f050000000000000000000000000000000000000000000000000000000081525f6004820152602401610612565b610857838383610df3565b5f5473ffffffffffffffffffffffffffffffffffffffff1633146106ee576040517f118cdaa7000000000000000000000000000000000000000000000000000000008152336004820152602401610612565b63ffffffff82165f81815260016020908152604091829020849055815192835282018390527f238399d427b947898edb290f5ff0f9109849b1c3ba196a42e35f00c50a54b98b910160405180910390a15050565b5f805473ffffffffffffffffffffffffffffffffffffffff8381167fffffffffffffffffffffffff0000000000000000000000000000000000000000831681178455604051919092169283917f8be0079c531659141344cd1fd0a4f28419497f9722a3daafe3b4186f6b6457e09190a35050565b73ffffffffffffffffffffffffffffffffffffffff8416610ca7576040517fe602df050000000000000000000000000000000000000000000000000000000081525f6004820152602401610612565b73ffffffffffffffffffffffffffffffffffffffff8316610cf6576040517f94280d620000000000000000000000000000000000000000000000000000000081525f6004820152602401610612565b73ffffffffffffffffffffffffffffffffffffffff8085165f9081526003602090815260408083209387168352929052208290558015610a8f578273ffffffffffffffffffffffffffffffffffffffff168473ffffffffffffffffffffffffffffffffffffffff167f8c5be1e5ebec7d5bd14f71427d1e84f3dd0314c0f7b2291e5b200ac8c7c3b92584604051610d8f91815260200190565b60405180910390a350505050565b73ffffffffffffffffffffffffffffffffffffffff8216610dec576040517fec442f050000000000000000000000000000000000000000000000000000000081525f6004820152602401610612565b6106d95f83835b73ffffffffffffffffffffffffffffffffffffffff8316610e2a578060045f828254610e1f9190611330565b90915550610eda9050565b73ffffffffffffffffffffffffffffffffffffffff83165f9081526002602052604090205481811015610eaf576040517fe450d38c00000000000000000000000000000000000000000000000000000000815273ffffffffffffffffffffffffffffffffffffffff851660048201526024810182905260448101839052606401610612565b73ffffffffffffffffffffffffffffffffffffffff84165f9081526002602052604090209082900390555b73ffffffffffffffffffffffffffffffffffffffff8216610f0357600480548290039055610f2e565b73ffffffffffffffffffffffffffffffffffffffff82165f9081526002602052604090208054820190555b8173ffffffffffffffffffffffffffffffffffffffff168373ffffffffffffffffffffffffffffffffffffffff167fddf252ad1be2c89b69c2b068fc378daa952ba7f163c4a11628f55a4df523b3ef83604051610f8d91815260200190565b60405180910390a3505050565b602081525f82518060208401528060208501604085015e5f6040828501015260407fffffffffffffffffffffffffffffffffffffffffffffffffffffffffffffffe0601f83011684010191505092915050565b73ffffffffffffffffffffffffffffffffffffffff81168114610813575f80fd5b5f806040838503121561101f575f80fd5b823561102a81610fed565b946020939093013593505050565b5f60608284031215611048575f80fd5b50919050565b5f8083601f84011261105e575f80fd5b50813567ffffffffffffffff811115611075575f80fd5b60208301915083602082850101111561108c575f80fd5b9250929050565b5f805f805f805f60e0888a0312156110a9575f80fd5b6110b38989611038565b965060608801359550608088013567ffffffffffffffff808211156110d6575f80fd5b6110e28b838c0161104e565b909750955060a08a013591506110f782610fed565b90935060c0890135908082111561110c575f80fd5b506111198a828b0161104e565b989b979a50959850939692959293505050565b5f805f6060848603121561113e575f80fd5b833561114981610fed565b9250602084013561115981610fed565b929592945050506040919091013590565b803563ffffffff8116811461117d575f80fd5b919050565b5f8060408385031215611193575f80fd5b61102a8361116a565b5f602082840312156111ac575f80fd5b81356111b781610fed565b9392505050565b5f805f8060a085870312156111d1575f80fd5b6111db8686611038565b9350606085013567ffffffffffffffff8111156111f6575f80fd5b6112028782880161104e565b909450925050608085013561121681610fed565b939692955090935050565b5f60208284031215611231575f80fd5b5035919050565b5f60208284031215611248575f80fd5b6111b78261116a565b5f8060408385031215611262575f80fd5b823561126d81610fed565b9150602083013561127d81610fed565b809150509250929050565b5f60608284031215611298575f80fd5b6111b78383611038565b600181811c908216806112b657607f821691505b602082108103611048577f4e487b71000000000000000000000000000000000000000000000000000000005f52602260045260245ffd5b5f805f8060808587031215611300575f80fd5b843561130b81610fed565b9350602085013561131b81610fed565b93969395505050506040820135916060013590565b8082018082111561059f577f4e487b71000000000000000000000000000000000000000000000000000000005f52601160045260245ffdfea26469706673582212207862fa631ce549ab46dc35ac963c0898e14dbe90197814fef5beead9ae4a355264736f6c63430008190033000000000000000000000000000000000000000000000000000000000000006000000000000000000000000000000000000000000000000000000000000000a00000000000000000000000006edce65403992e310a62460808c4b910d972f10f000000000000000000000000000000000000000000000000000000000000001157726170706564204d6f636b45524332300000000000000000000000000000000000000000000000000000000000000000000000000000000000000000000004774d434b00000000000000000000000000000000000000000000000000000000",
            "nonce": "0x0",
            "chainId": "0x4268"
          },
          "additionalContracts": [],
          "isFixedGasLimit": false
        }
      ],
      "receipts": [
        {
          "status": "0x1",
          "cumulativeGasUsed": "0x59de5f",
          "logs": [
            {
              "address": "0x6eeb0f8829ca6e9acc45b25e7b936758e8a714e1",
              "topics": [
                "0x8be0079c531659141344cd1fd0a4f28419497f9722a3daafe3b4186f6b6457e0",
                "0x0000000000000000000000000000000000000000000000000000000000000000",
                "0x000000000000000000000000fc700d4e7d22ee50c66591c7295b06c3e6238968"
              ],
              "data": "0x",
              "blockHash": "0x6445daa9491971498ef517eb32a789bf41ed40c5e2dbce0e2c6d55ea8b288d63",
              "blockNumber": "0x3c99a0",
              "transactionHash": "0xe1267092d9bbbc547603bb509b1793e925deff1ce4a0cec6b956df7f232cb163",
              "transactionIndex": "0x28",
              "logIndex": "0x41",
              "removed": false
            },
            {
              "address": "0x6edce65403992e310a62460808c4b910d972f10f",
              "topics": [
                "0x6ee10e9ed4d6ce9742703a498707862f4b00f1396a87195eb93267b3d7983981"
              ],
              "data": "0x0000000000000000000000006eeb0f8829ca6e9acc45b25e7b936758e8a714e1000000000000000000000000fc700d4e7d22ee50c66591c7295b06c3e6238968",
              "blockHash": "0x6445daa9491971498ef517eb32a789bf41ed40c5e2dbce0e2c6d55ea8b288d63",
              "blockNumber": "0x3c99a0",
              "transactionHash": "0xe1267092d9bbbc547603bb509b1793e925deff1ce4a0cec6b956df7f232cb163",
              "transactionIndex": "0x28",
              "logIndex": "0x42",
              "removed": false
            }
          ],
          "logsBloom": "0x00000000000000000000000000000000000000000000000000800000000000000004000000000004200000000000000000000002000000000000000000000000000000000000000000000000000000000001000000000000000000000000000000000000020000000200020000000800000000000000000000000000000800400000000000000020000000000000000000000000000000000000000000000000000000000000000000000000000000000000000000000000000000000000000400000000000000000000000000000800000000000000000000000000000220000000000000000000000000000000000000000000000000000000000000000000",
          "type": "0x2",
          "transactionHash": "0xe1267092d9bbbc547603bb509b1793e925deff1ce4a0cec6b956df7f232cb163",
          "transactionIndex": "0x28",
          "blockHash": "0x6445daa9491971498ef517eb32a789bf41ed40c5e2dbce0e2c6d55ea8b288d63",
          "blockNumber": "0x3c99a0",
          "gasUsed": "0x13044e",
          "effectiveGasPrice": "0xfc3c9",
          "from": "0xfc700d4e7d22ee50c66591c7295b06c3e6238968",
          "to": null,
          "contractAddress": "0x6eeb0f8829ca6e9acc45b25e7b936758e8a714e1"
        }
      ],
      "libraries": [],
      "pending": [],
      "returns": {},
      "timestamp": 1749424019,
      "chain": 17000,
      "commit": "0e89b13"
    },
    {
      "transactions": [
        {
          "hash": "0x478949fb880be467c93cfbda6a8cde7de9058da56de2ee1b44c1c9bf77f3e528",
          "transactionType": "CALL",
          "contractName": "TokenBridge",
          "contractAddress": "0x86e8b4731ee7e7c00bb0dc4d9172976caa639201",
          "function": "setPeer(uint32,bytes32)",
          "arguments": [
            "40217",
            "0x0000000000000000000000006eeb0f8829ca6e9acc45b25e7b936758e8a714e1"
          ],
          "transaction": {
            "from": "0xfc700d4e7d22ee50c66591c7295b06c3e6238968",
            "to": "0x86e8b4731ee7e7c00bb0dc4d9172976caa639201",
            "gas": "0x10108",
            "value": "0x0",
            "input": "0x3400288b0000000000000000000000000000000000000000000000000000000000009d190000000000000000000000006eeb0f8829ca6e9acc45b25e7b936758e8a714e1",
            "nonce": "0xf",
            "chainId": "0xaa36a7"
          },
          "additionalContracts": [],
          "isFixedGasLimit": false
        }
      ],
      "receipts": [
        {
          "status": "0x1",
          "cumulativeGasUsed": "0x1983b6a",
          "logs": [
            {
              "address": "0x86e8b4731ee7e7c00bb0dc4d9172976caa639201",
              "topics": [
                "0x238399d427b947898edb290f5ff0f9109849b1c3ba196a42e35f00c50a54b98b"
              ],
              "data": "0x0000000000000000000000000000000000000000000000000000000000009d190000000000000000000000006eeb0f8829ca6e9acc45b25e7b936758e8a714e1",
              "blockHash": "0x9f7b92a38baf43a7471d485a762781a5ea1f7c86d5d2602f99b2f4bd2e315004",
              "blockNumber": "0x81ce89",
              "transactionHash": "0x478949fb880be467c93cfbda6a8cde7de9058da56de2ee1b44c1c9bf77f3e528",
              "transactionIndex": "0x3f",
              "logIndex": "0x65",
              "removed": false
            }
          ],
          "logsBloom": "0x00000000000000000000000000000000000000000000000000000000000000010000000000000000000000000000000000000000000000000800000000000000000000000000000000000000000000000000000000000000000000000000000000000000000000000000000000000000000000000000000000000000000000000000001000000000000000000000000000000000000000000000000000000000000000000000000000000000000000000000000000000000000002000000000000000000010000000000000000000000000000000000000000040000000000000000000000000000000000000000000000000000000000000000000000000000",
          "type": "0x2",
          "transactionHash": "0x478949fb880be467c93cfbda6a8cde7de9058da56de2ee1b44c1c9bf77f3e528",
          "transactionIndex": "0x3f",
          "blockHash": "0x9f7b92a38baf43a7471d485a762781a5ea1f7c86d5d2602f99b2f4bd2e315004",
          "blockNumber": "0x81ce89",
          "gasUsed": "0xba17",
          "effectiveGasPrice": "0xf424c",
          "from": "0xfc700d4e7d22ee50c66591c7295b06c3e6238968",
          "to": "0x86e8b4731ee7e7c00bb0dc4d9172976caa639201",
          "contractAddress": null
        }
      ],
      "libraries": [],
      "pending": [],
      "returns": {},
      "timestamp": 1749424019,
      "chain": 11155111,
      "commit": "0e89b13"
    },
    {
      "transactions": [
        {
          "hash": "0xc1acbca5cfccb54c0d6c8a0b44891dd3fb820703f8fe5d43f9144ca8c4b0c7f9",
          "transactionType": "CALL",
          "contractName": "WrappedToken",
          "contractAddress": "0x6eeb0f8829ca6e9acc45b25e7b936758e8a714e1",
          "function": "setPeer(uint32,bytes32)",
          "arguments": [
            "40161",
            "0x00000000000000000000000086e8b4731ee7e7c00bb0dc4d9172976caa639201"
          ],
          "transaction": {
            "from": "0xfc700d4e7d22ee50c66591c7295b06c3e6238968",
            "to": "0x6eeb0f8829ca6e9acc45b25e7b936758e8a714e1",
            "gas": "0x11067",
            "value": "0x0",
            "input": "0x3400288b0000000000000000000000000000000000000000000000000000000000009ce100000000000000000000000086e8b4731ee7e7c00bb0dc4d9172976caa639201",
            "nonce": "0x1",
            "chainId": "0x4268"
          },
          "additionalContracts": [],
          "isFixedGasLimit": false
        }
      ],
      "receipts": [
        {
          "status": "0x1",
          "cumulativeGasUsed": "0x9110ae",
          "logs": [
            {
              "address": "0x6eeb0f8829ca6e9acc45b25e7b936758e8a714e1",
              "topics": [
                "0x238399d427b947898edb290f5ff0f9109849b1c3ba196a42e35f00c50a54b98b"
              ],
              "data": "0x0000000000000000000000000000000000000000000000000000000000009ce100000000000000000000000086e8b4731ee7e7c00bb0dc4d9172976caa639201",
              "blockHash": "0x88e4a7888ae3d0bc978cfd99b8915982b23d8fb375e29487c359816686112c4a",
              "blockNumber": "0x3c99a2",
              "transactionHash": "0xc1acbca5cfccb54c0d6c8a0b44891dd3fb820703f8fe5d43f9144ca8c4b0c7f9",
              "transactionIndex": "0x26",
              "logIndex": "0x51",
              "removed": false
            }
          ],
          "logsBloom": "0x00000000000000000000000000000000000000000000000000000000000000000004000000000000000000000000000000000000000000000800000000000000000000000000000000000000000000000000000000000000000000000000000000000000000000000000000000000000000000000000000000000000000000000000000000000000000000000000000000000000000000000000000000000000000000000000000000000000000000000000000000000000000002000000000000000000000000000000000000000800000000000000000000040000000200000000000000000000000000000000000000000000000000000000000000000000",
          "type": "0x2",
          "transactionHash": "0xc1acbca5cfccb54c0d6c8a0b44891dd3fb820703f8fe5d43f9144ca8c4b0c7f9",
          "transactionIndex": "0x26",
          "blockHash": "0x88e4a7888ae3d0bc978cfd99b8915982b23d8fb375e29487c359816686112c4a",
          "blockNumber": "0x3c99a2",
          "gasUsed": "0xba43",
          "effectiveGasPrice": "0xfc3c9",
          "from": "0xfc700d4e7d22ee50c66591c7295b06c3e6238968",
          "to": "0x6eeb0f8829ca6e9acc45b25e7b936758e8a714e1",
          "contractAddress": null
        }
      ],
      "libraries": [],
      "pending": [],
      "returns": {},
      "timestamp": 1749424019,
      "chain": 17000,
      "commit": "0e89b13"
    },
    {
      "transactions": [
        {
          "hash": "0xf466c519b7727cb89493fbc67a51772f58b90b636d85cae9efff70de520243b7",
          "transactionType": "CALL",
          "contractName": null,
          "contractAddress": "0x6edce65403992e310a62460808c4b910d972f10f",
          "function": "setConfig(address,address,(uint32,uint32,bytes)[])",
          "arguments": [
            "0x86E8b4731Ee7E7C00Bb0dc4D9172976Caa639201",
            "0xcc1ae8Cf5D3904Cef3360A9532B477529b177cCE",
            "[(40217, 1, 0x0000000000000000000000000000000000000000000000000000000000002710000000000000000000000000718b92b5cb0a5552039b593faf724d182a881eda), (40217, 2, 0x0000000000000000000000000000000000000000000000000000000000000020000000000000000000000000000000000000000000000000000000000000000f000000000000000000000000000000000000000000000000000000000000000100000000000000000000000000000000000000000000000000000000000000ff000000000000000000000000000000000000000000000000000000000000000000000000000000000000000000000000000000000000000000000000000000c0000000000000000000000000000000000000000000000000000000000000010000000000000000000000000000000000000000000000000000000000000000010000000000000000000000008eebf8b423b73bfca51a1db4b7354aa0bfca91930000000000000000000000000000000000000000000000000000000000000000)]"
          ],
          "transaction": {
            "from": "0xfc700d4e7d22ee50c66591c7295b06c3e6238968",
            "to": "0x6edce65403992e310a62460808c4b910d972f10f",
            "gas": "0x305f5",
            "value": "0x0",
            "input": "0x6dbd9f9000000000000000000000000086e8b4731ee7e7c00bb0dc4d9172976caa639201000000000000000000000000cc1ae8cf5d3904cef3360a9532b477529b177cce00000000000000000000000000000000000000000000000000000000000000600000000000000000000000000000000000000000000000000000000000000002000000000000000000000000000000000000000000000000000000000000004000000000000000000000000000000000000000000000000000000000000001000000000000000000000000000000000000000000000000000000000000009d190000000000000000000000000000000000000000000000000000000000000001000000000000000000000000000000000000000000000000000000000000006000000000000000000000000000000000000000000000000000000000000000400000000000000000000000000000000000000000000000000000000000002710000000000000000000000000718b92b5cb0a5552039b593faf724d182a881eda0000000000000000000000000000000000000000000000000000000000009d190000000000000000000000000000000000000000000000000000000000000002000000000000000000000000000000000000000000000000000000000000006000000000000000000000000000000000000000000000000000000000000001400000000000000000000000000000000000000000000000000000000000000020000000000000000000000000000000000000000000000000000000000000000f000000000000000000000000000000000000000000000000000000000000000100000000000000000000000000000000000000000000000000000000000000ff000000000000000000000000000000000000000000000000000000000000000000000000000000000000000000000000000000000000000000000000000000c0000000000000000000000000000000000000000000000000000000000000010000000000000000000000000000000000000000000000000000000000000000010000000000000000000000008eebf8b423b73bfca51a1db4b7354aa0bfca91930000000000000000000000000000000000000000000000000000000000000000",
            "nonce": "0x10",
            "chainId": "0xaa36a7"
          },
          "additionalContracts": [],
          "isFixedGasLimit": false
        }
      ],
      "receipts": [
        {
          "status": "0x1",
          "cumulativeGasUsed": "0x54940a",
          "logs": [
            {
              "address": "0xcc1ae8cf5d3904cef3360a9532b477529b177cce",
              "topics": [
                "0x779cb2dd9d2bb1be1737d05435d744facbfb84a2a4912e21379d39beddcdc805"
              ],
              "data": "0x00000000000000000000000086e8b4731ee7e7c00bb0dc4d9172976caa6392010000000000000000000000000000000000000000000000000000000000009d190000000000000000000000000000000000000000000000000000000000002710000000000000000000000000718b92b5cb0a5552039b593faf724d182a881eda",
              "blockHash": "0x2b54be9ea853c952d1fd592618445921aac1767282227767b7b7b683890e1434",
              "blockNumber": "0x81ce8b",
              "transactionHash": "0xf466c519b7727cb89493fbc67a51772f58b90b636d85cae9efff70de520243b7",
              "transactionIndex": "0x3b",
              "logIndex": "0x49",
              "removed": false
            },
            {
              "address": "0xcc1ae8cf5d3904cef3360a9532b477529b177cce",
              "topics": [
                "0x82118522aa536ac0e96cc5c689407ae42b89d592aa133890a01f1509842f5081"
              ],
              "data": "0x00000000000000000000000086e8b4731ee7e7c00bb0dc4d9172976caa6392010000000000000000000000000000000000000000000000000000000000009d190000000000000000000000000000000000000000000000000000000000000060000000000000000000000000000000000000000000000000000000000000000f000000000000000000000000000000000000000000000000000000000000000100000000000000000000000000000000000000000000000000000000000000ff000000000000000000000000000000000000000000000000000000000000000000000000000000000000000000000000000000000000000000000000000000c0000000000000000000000000000000000000000000000000000000000000010000000000000000000000000000000000000000000000000000000000000000010000000000000000000000008eebf8b423b73bfca51a1db4b7354aa0bfca91930000000000000000000000000000000000000000000000000000000000000000",
              "blockHash": "0x2b54be9ea853c952d1fd592618445921aac1767282227767b7b7b683890e1434",
              "blockNumber": "0x81ce8b",
              "transactionHash": "0xf466c519b7727cb89493fbc67a51772f58b90b636d85cae9efff70de520243b7",
              "transactionIndex": "0x3b",
              "logIndex": "0x4a",
              "removed": false
            }
          ],
          "logsBloom": "0x00000000000000000000000000000000000000000000000000000000000100000000000000000000000000000000000000000000000000000000000000000000000000000000000000000040000000000000000000000000002000000000000000000000000000000000000000000000000000000000000000000000000000000000000000000000000000000000000000000000000000000000000000000000000000000000000000000002000000000000000000000000000000000000000200000000000000000000000000000000000000080000000000000000000000000008000000000000000000000000000000000000000000000000000000000030",
          "type": "0x2",
          "transactionHash": "0xf466c519b7727cb89493fbc67a51772f58b90b636d85cae9efff70de520243b7",
          "transactionIndex": "0x3b",
          "blockHash": "0x2b54be9ea853c952d1fd592618445921aac1767282227767b7b7b683890e1434",
          "blockNumber": "0x81ce8b",
          "gasUsed": "0x23055",
          "effectiveGasPrice": "0x102cae",
          "from": "0xfc700d4e7d22ee50c66591c7295b06c3e6238968",
          "to": "0x6edce65403992e310a62460808c4b910d972f10f",
          "contractAddress": null
        }
      ],
      "libraries": [],
      "pending": [],
      "returns": {},
      "timestamp": 1749424019,
      "chain": 11155111,
      "commit": "0e89b13"
    },
    {
      "transactions": [
        {
          "hash": "0x2fcc858871c19333cfbb558f0cf83a14847865f4fccd75c85611dbf8a45b9f84",
          "transactionType": "CALL",
          "contractName": null,
          "contractAddress": "0x6edce65403992e310a62460808c4b910d972f10f",
          "function": "setConfig(address,address,(uint32,uint32,bytes)[])",
          "arguments": [
            "0x6eeB0F8829ca6e9aCc45B25E7B936758E8a714E1",
            "0xbAe52D605770aD2f0D17533ce56D146c7C964A0d",
            "[(40161, 2, 0x0000000000000000000000000000000000000000000000000000000000000020000000000000000000000000000000000000000000000000000000000000000f000000000000000000000000000000000000000000000000000000000000000100000000000000000000000000000000000000000000000000000000000000ff000000000000000000000000000000000000000000000000000000000000000000000000000000000000000000000000000000000000000000000000000000c0000000000000000000000000000000000000000000000000000000000000010000000000000000000000000000000000000000000000000000000000000000010000000000000000000000003e43f8ff0175580f7644da043071c289ddf981180000000000000000000000000000000000000000000000000000000000000000)]"
          ],
          "transaction": {
            "from": "0xfc700d4e7d22ee50c66591c7295b06c3e6238968",
            "to": "0x6edce65403992e310a62460808c4b910d972f10f",
            "gas": "0x293dd",
            "value": "0x0",
            "input": "0x6dbd9f900000000000000000000000006eeb0f8829ca6e9acc45b25e7b936758e8a714e1000000000000000000000000bae52d605770ad2f0d17533ce56d146c7c964a0d0000000000000000000000000000000000000000000000000000000000000060000000000000000000000000000000000000000000000000000000000000000100000000000000000000000000000000000000000000000000000000000000200000000000000000000000000000000000000000000000000000000000009ce10000000000000000000000000000000000000000000000000000000000000002000000000000000000000000000000000000000000000000000000000000006000000000000000000000000000000000000000000000000000000000000001400000000000000000000000000000000000000000000000000000000000000020000000000000000000000000000000000000000000000000000000000000000f000000000000000000000000000000000000000000000000000000000000000100000000000000000000000000000000000000000000000000000000000000ff000000000000000000000000000000000000000000000000000000000000000000000000000000000000000000000000000000000000000000000000000000c0000000000000000000000000000000000000000000000000000000000000010000000000000000000000000000000000000000000000000000000000000000010000000000000000000000003e43f8ff0175580f7644da043071c289ddf981180000000000000000000000000000000000000000000000000000000000000000",
            "nonce": "0x2",
            "chainId": "0x4268"
          },
          "additionalContracts": [],
          "isFixedGasLimit": false
        }
      ],
      "receipts": [
        {
          "status": "0x1",
          "cumulativeGasUsed": "0x370640",
          "logs": [
            {
              "address": "0xbae52d605770ad2f0d17533ce56d146c7c964a0d",
              "topics": [
                "0x82118522aa536ac0e96cc5c689407ae42b89d592aa133890a01f1509842f5081"
              ],
              "data": "0x0000000000000000000000006eeb0f8829ca6e9acc45b25e7b936758e8a714e10000000000000000000000000000000000000000000000000000000000009ce10000000000000000000000000000000000000000000000000000000000000060000000000000000000000000000000000000000000000000000000000000000f000000000000000000000000000000000000000000000000000000000000000100000000000000000000000000000000000000000000000000000000000000ff000000000000000000000000000000000000000000000000000000000000000000000000000000000000000000000000000000000000000000000000000000c0000000000000000000000000000000000000000000000000000000000000010000000000000000000000000000000000000000000000000000000000000000010000000000000000000000003e43f8ff0175580f7644da043071c289ddf981180000000000000000000000000000000000000000000000000000000000000000",
              "blockHash": "0xe9ec5dd842507215da7b84fc6dc1ce66187dcf006d800e0ebe52eec94fd84232",
              "blockNumber": "0x3c99a3",
              "transactionHash": "0x2fcc858871c19333cfbb558f0cf83a14847865f4fccd75c85611dbf8a45b9f84",
              "transactionIndex": "0x28",
              "logIndex": "0x31",
              "removed": false
            }
          ],
          "logsBloom": "0x00000000000000000000000000000000000000000000000000000000000000000000000000000000000000000000000000000000000000000000000000000000000000000000000000000000000000000000000000000000002000000000000000000000000000000000000000010000000000000000000000000000000000000000000008000000000000000000000000000000000000000004000000000000000000000000000000000002000000000000000000000000000000000000000000000000000000000000000000000000000000000000000000000000000000000000000000000000000000000000000000000000000000000000000000000010",
          "type": "0x2",
          "transactionHash": "0x2fcc858871c19333cfbb558f0cf83a14847865f4fccd75c85611dbf8a45b9f84",
          "transactionIndex": "0x28",
          "blockHash": "0xe9ec5dd842507215da7b84fc6dc1ce66187dcf006d800e0ebe52eec94fd84232",
          "blockNumber": "0x3c99a3",
          "gasUsed": "0x1c331",
          "effectiveGasPrice": "0xfc3c8",
          "from": "0xfc700d4e7d22ee50c66591c7295b06c3e6238968",
          "to": "0x6edce65403992e310a62460808c4b910d972f10f",
          "contractAddress": null
        }
      ],
      "libraries": [],
      "pending": [],
      "returns": {},
      "timestamp": 1749424019,
      "chain": 17000,
      "commit": "0e89b13"
    },
    {
      "transactions": [
        {
          "hash": "0xc8247ce4ff602dec13def43e43499a6ef6065199351746a71ac7af233448e626",
          "transactionType": "CALL",
          "contractName": "MockERC20",
          "contractAddress": "0x40bbad54fe7d8d7d079d56c7b90be2d298cb29b6",
          "function": "approve(address,uint256)",
          "arguments": [
            "0x86E8b4731Ee7E7C00Bb0dc4D9172976Caa639201",
            "1000000000000000000000000"
          ],
          "transaction": {
            "from": "0xfc700d4e7d22ee50c66591c7295b06c3e6238968",
            "to": "0x40bbad54fe7d8d7d079d56c7b90be2d298cb29b6",
            "gas": "0x108ad",
            "value": "0x0",
            "input": "0x095ea7b300000000000000000000000086e8b4731ee7e7c00bb0dc4d9172976caa63920100000000000000000000000000000000000000000000d3c21bcecceda1000000",
            "nonce": "0x11",
            "chainId": "0xaa36a7"
          },
          "additionalContracts": [],
          "isFixedGasLimit": false
        },
        {
          "hash": "0xd5871e3dedcb1af8cf88a3d44a87f6b85187be333a4d5f3801d61c16e916a342",
          "transactionType": "CALL",
          "contractName": "TokenBridge",
          "contractAddress": "0x86e8b4731ee7e7c00bb0dc4d9172976caa639201",
          "function": "lockTokens(uint256,address)",
          "arguments": [
            "1000000000000000000000000",
            "0xfc700D4E7D22eE50C66591C7295b06C3E6238968"
          ],
          "transaction": {
            "from": "0xfc700d4e7d22ee50c66591c7295b06c3e6238968",
            "to": "0x86e8b4731ee7e7c00bb0dc4d9172976caa639201",
            "gas": "0x7a53f",
            "value": "0xd7785cd24a1",
            "input": "0xaa68acde00000000000000000000000000000000000000000000d3c21bcecceda1000000000000000000000000000000fc700d4e7d22ee50c66591c7295b06c3e6238968",
            "nonce": "0x12",
            "chainId": "0xaa36a7"
          },
          "additionalContracts": [],
          "isFixedGasLimit": false
        }
      ],
      "receipts": [
        {
          "status": "0x1",
          "cumulativeGasUsed": "0x1b9406a",
          "logs": [
            {
              "address": "0x40bbad54fe7d8d7d079d56c7b90be2d298cb29b6",
              "topics": [
                "0x8c5be1e5ebec7d5bd14f71427d1e84f3dd0314c0f7b2291e5b200ac8c7c3b925",
                "0x000000000000000000000000fc700d4e7d22ee50c66591c7295b06c3e6238968",
                "0x00000000000000000000000086e8b4731ee7e7c00bb0dc4d9172976caa639201"
              ],
              "data": "0x00000000000000000000000000000000000000000000d3c21bcecceda1000000",
              "blockHash": "0x505cac33f6865dbb3e91dc6cf8d087e2e5d622e1129ce63bf1579dc72446c104",
              "blockNumber": "0x81ce8d",
              "transactionHash": "0xc8247ce4ff602dec13def43e43499a6ef6065199351746a71ac7af233448e626",
              "transactionIndex": "0x47",
              "logIndex": "0x60",
              "removed": false
            }
          ],
          "logsBloom": "0x00000000000000000000000000000000000000000000000000000000000000000000000000100004000000000000000000000000000000000000000000200000000000000000000001000000000000000000000000000000000000000000000000000000000000000000020000000000000000000000000000000000000800000000000000000000000000000000000000000000000000000000000000000000020000000000000000000000000000000000000000000000000000000000000000020000000000000000000000000000000000000000000000000000000000002030000000000000002000000000000000000000000000000000000000000000",
          "type": "0x2",
          "transactionHash": "0xc8247ce4ff602dec13def43e43499a6ef6065199351746a71ac7af233448e626",
          "transactionIndex": "0x47",
          "blockHash": "0x505cac33f6865dbb3e91dc6cf8d087e2e5d622e1129ce63bf1579dc72446c104",
          "blockNumber": "0x81ce8d",
          "gasUsed": "0xb4fa",
          "effectiveGasPrice": "0xf424d",
          "from": "0xfc700d4e7d22ee50c66591c7295b06c3e6238968",
          "to": "0x40bbad54fe7d8d7d079d56c7b90be2d298cb29b6",
          "contractAddress": null
        },
        {
          "status": "0x1",
          "cumulativeGasUsed": "0x8c0b4a",
          "logs": [
            {
              "address": "0x40bbad54fe7d8d7d079d56c7b90be2d298cb29b6",
              "topics": [
                "0xddf252ad1be2c89b69c2b068fc378daa952ba7f163c4a11628f55a4df523b3ef",
                "0x000000000000000000000000fc700d4e7d22ee50c66591c7295b06c3e6238968",
                "0x00000000000000000000000086e8b4731ee7e7c00bb0dc4d9172976caa639201"
              ],
              "data": "0x00000000000000000000000000000000000000000000d3c21bcecceda1000000",
              "blockHash": "0x1e070291b10a74ee53c8d3a0ecb5f070c5eb1e2580b1ddd64808db061de446cc",
              "blockNumber": "0x81ce8e",
              "transactionHash": "0xd5871e3dedcb1af8cf88a3d44a87f6b85187be333a4d5f3801d61c16e916a342",
              "transactionIndex": "0x4e",
              "logIndex": "0x80",
              "removed": false
            },
            {
              "address": "0x86e8b4731ee7e7c00bb0dc4d9172976caa639201",
              "topics": [
                "0xce5aa80d5a0785faf7555aaebaff45f1d50c3976c94d46f53ee2528b1486dc15",
                "0x000000000000000000000000fc700d4e7d22ee50c66591c7295b06c3e6238968",
                "0x000000000000000000000000fc700d4e7d22ee50c66591c7295b06c3e6238968",
                "0xc42dd800f1948831ae307100ca0acc32425e2a1da20880a2e4aa4655509f436c"
              ],
              "data": "0x00000000000000000000000000000000000000000000d3c21bcecceda1000000",
              "blockHash": "0x1e070291b10a74ee53c8d3a0ecb5f070c5eb1e2580b1ddd64808db061de446cc",
              "blockNumber": "0x81ce8e",
              "transactionHash": "0xd5871e3dedcb1af8cf88a3d44a87f6b85187be333a4d5f3801d61c16e916a342",
              "transactionIndex": "0x4e",
              "logIndex": "0x81",
              "removed": false
            },
            {
              "address": "0xcc1ae8cf5d3904cef3360a9532b477529b177cce",
              "topics": [
                "0x61ed099e74a97a1d7f8bb0952a88ca8b7b8ebd00c126ea04671f92a81213318a"
              ],
              "data": "0x000000000000000000000000718b92b5cb0a5552039b593faf724d182a881eda0000000000000000000000000000000000000000000000000000078ab812bcc1",
              "blockHash": "0x1e070291b10a74ee53c8d3a0ecb5f070c5eb1e2580b1ddd64808db061de446cc",
              "blockNumber": "0x81ce8e",
              "transactionHash": "0xd5871e3dedcb1af8cf88a3d44a87f6b85187be333a4d5f3801d61c16e916a342",
              "transactionIndex": "0x4e",
              "logIndex": "0x82",
              "removed": false
            },
            {
              "address": "0xcc1ae8cf5d3904cef3360a9532b477529b177cce",
              "topics": [
                "0x07ea52d82345d6e838192107d8fd7123d9c2ec8e916cd0aad13fd2b60db24644"
              ],
              "data": "0x000000000000000000000000000000000000000000000000000000000000006000000000000000000000000000000000000000000000000000000000000000a000000000000000000000000000000000000000000000000000000000000000c000000000000000000000000000000000000000000000000000000000000000010000000000000000000000008eebf8b423b73bfca51a1db4b7354aa0bfca919300000000000000000000000000000000000000000000000000000000000000000000000000000000000000000000000000000000000000000000000000000001000000000000000000000000000000000000000000000000000003ae376d8c70",
              "blockHash": "0x1e070291b10a74ee53c8d3a0ecb5f070c5eb1e2580b1ddd64808db061de446cc",
              "blockNumber": "0x81ce8e",
              "transactionHash": "0xd5871e3dedcb1af8cf88a3d44a87f6b85187be333a4d5f3801d61c16e916a342",
              "transactionIndex": "0x4e",
              "logIndex": "0x83",
              "removed": false
            },
            {
              "address": "0x6edce65403992e310a62460808c4b910d972f10f",
              "topics": [
                "0x1ab700d4ced0c005b164c0f789fd09fcbb0156d4c2041b8a3bfbcd961cd1567f"
              ],
              "data": "0x00000000000000000000000000000000000000000000000000000000000000600000000000000000000000000000000000000000000000000000000000000180000000000000000000000000cc1ae8cf5d3904cef3360a9532b477529b177cce00000000000000000000000000000000000000000000000000000000000000f101000000000000000100009ce100000000000000000000000086e8b4731ee7e7c00bb0dc4d9172976caa63920100009d190000000000000000000000006eeb0f8829ca6e9acc45b25e7b936758e8a714e14fcdb79fd0899e1ddbcde810d63623aaff58fff2f2500754613785d4aaf1647d000000000000000000000000fc700d4e7d22ee50c66591c7295b06c3e6238968000000000000000000000000fc700d4e7d22ee50c66591c7295b06c3e623896800000000000000000000000000000000000000000000d3c21bcecceda1000000c42dd800f1948831ae307100ca0acc32425e2a1da20880a2e4aa4655509f436c0000000000000000000000000000000000000000000000000000000000000000000000000000000000000000000016000301001101000000000000000000000000000493e000000000000000000000",
              "blockHash": "0x1e070291b10a74ee53c8d3a0ecb5f070c5eb1e2580b1ddd64808db061de446cc",
              "blockNumber": "0x81ce8e",
              "transactionHash": "0xd5871e3dedcb1af8cf88a3d44a87f6b85187be333a4d5f3801d61c16e916a342",
              "transactionIndex": "0x4e",
              "logIndex": "0x84",
              "removed": false
            }
          ],
          "logsBloom": "0x00000000000000000000000000000000000000000000000000000000000100010000000000100004200000000800000000000000000000000000000000000000000000000000000001000008000000000000000000000000000000000000000000000000000000008200020000000000000000000000000000000010000800000000001000000024000000080020000000000000000000000000000000010000000000008000000000100000000000000000000000400000000440000000000000020002010000000000000000000080000000080000000000000000000000002020040000000000002000000000002000000000000000000000000000000020",
          "type": "0x2",
          "transactionHash": "0xd5871e3dedcb1af8cf88a3d44a87f6b85187be333a4d5f3801d61c16e916a342",
          "transactionIndex": "0x4e",
          "blockHash": "0x1e070291b10a74ee53c8d3a0ecb5f070c5eb1e2580b1ddd64808db061de446cc",
          "blockNumber": "0x81ce8e",
          "gasUsed": "0x53a4a",
          "effectiveGasPrice": "0xf424e",
          "from": "0xfc700d4e7d22ee50c66591c7295b06c3e6238968",
          "to": "0x86e8b4731ee7e7c00bb0dc4d9172976caa639201",
          "contractAddress": null
        }
      ],
      "libraries": [],
      "pending": [],
      "returns": {},
      "timestamp": 1749424019,
      "chain": 11155111,
      "commit": "0e89b13"
    }
  ],
  "timestamp": 1749424194
}